:020000040800F2
:1000000000500020FD360008613700086137000805
:100010006137000861370008613700080000000000
:100020000000000000000000000000006137000830
:1000300061370008000000006137000861370008E0
:100040006137000861370008613700086137000830
:100050006137000861370008613700086137000820
:100060006137000861370008613700086137000810
:100070006137000861370008613700086137000800
:1000800061370008613700086137000861370008F0
:1000900061370008613700086137000861370008E0
:1000A00061370008613700086137000861370008D0
:1000B00061370008613700086137000861370008C0
:1000C00061370008613700086137000861370008B0
:1000D00061370008613700086137000861370008A0
:1000E0006137000861370008613700086137000890
:1000F0006137000861370008613700086137000880
:10010000613700086137000861370008613700086F
:10011000613700086137000861370008613700085F
:10012000613700086137000861370008613700084F
:10013000044B05481B1A062B02D9044B03B1184780
:10014000704700BF130100201001002000000000D4
:1001500005490648091A891001EBD171491002D0EE
:10016000034B03B118477047100100201001002015
:100170000000000010B5064C237843B9FFF7D8FF04
:10018000044B13B10448AFF300800123237010BD6A
:100190001001002000000000045B000808B5084BB7
:1001A0001BB108490848AFF300800848036813B939
:1001B000BDE80840CCE7064B002BF9D09847F7E79D
:1001C0000000000014010020045B00081001002062
:1001D0000000000070B50F4E0F4D761BB61018BF13
:1001E000002405D0013455F8043B9847A642F9D1C4
:1001F0000A4E0B4D05F07AFC761BB61018BF002492
:1002000006D0013455F8043B9847A642F9D170BD99
:1002100070BD00BF000000000000000000000000F2
:100220000000000070B4860746D0541E002A41D05A
:10023000CAB2034602E014F1FF343BD303F8012BAA
:100240009D07F8D1032C2ED9CDB245EA05250F2CF8
:1002500045EA054519D9264603F11002103E0F2E36
:1002600042F8105C42F80C5C42F8085C42F8045C0E
:1002700002F11002F2D8A4F1100222F00F0204F0F1
:100280000F041032032C13440DD91E462246043AA3
:10029000032A46F8045BFAD8221F22F00302043234
:1002A000134404F003042CB1C9B21C4403F8011B2D
:1002B0009C42FBD170BC704714460346C2E700BFA6
:1002C0002DE9F047002B88B098469146109D139F6A
:1002D000149C5FDB0023129A1370662C44D0462CCA
:1002E00042D024F02003452B4A4643464FF00201FA
:1002F00028D007AE8DE8220006A904960297039144
:1003000000F01AFE672C064627D1119BDB0729D582
:100310003544484641460022002303F0DFF8002818
:1003200036D1079B9D4206D930215A1C079219707D
:10033000079B9D42F9D83046159A9B1B136008B065
:10034000BDE8F08707AE0091013506A90496019536
:100350000297039100F0F0FD0646472CD8D1119B7F
:10036000DB07D5D4079BE6E7032107AE8DE8A200A3
:1003700006A9434604964A46039100F0DDFD037842
:100380000646302B00EB050A0BD03D685544C0E70C
:100390002B46D0E72D2103F100439846129B19709C
:1003A0009BE7484641460022002303F097F80028C7
:1003B000EBD1C5F101053D605544AAE7F0B4002931
:1003C00082B002703CDB2B23841C437009292DDD95
:1003D0000DF107052E461E4F00E0164687FB012350
:1003E000CA17C2EBA30202EB8203A1EB430311463F
:1003F0003033092906F8013C06F1FF32EDDC3031DB
:10040000B31EC9B29D4202F8011C1ED913462646EE
:1004100001E013F8011B9D4206F8011BF9D16B1C8A
:100420009A1A2244101A02B0F0BC704730232246B8
:10043000194402F8023B6170101A02B0F0BC704718
:100440002D2349424370841CC0E72246F4E700BFD5
:10045000676666662DE9F04F93B00C4616461F4658
:10046000DDF870B0054601F0FDFC036818460A93FC
:1004700000F0A0FC0023DBF800102268073109928D
:100480000B90109321F00701D1F8008012F4807FC7
:1004900094F818A0424600F0D88048680831034616
:1004A0008146CBF80010C4E9122329F0004B4046E6
:1004B00059464FF0FF32BB4B03F042F800286FD192
:1004C000404659464FF0FF32B64B03F01BF8002868
:1004D00066D1404649460022002303F009F800286F
:1004E00040F027810321099BAF4A23F004032360D6
:1004F000AE4BBAF1470F98BF1A464FF00008216182
:1005000009920097334611AA2146284600F06CFA5A
:10051000013040D02368590540F10381BAF1650FDD
:1005200040F29C80D4E912010022002302F0D6FFA1
:10053000002840F0D3810F9B002B40F31982109BC1
:10054000D4F858904B45A8BF4B46002B9A4607DD80
:10055000099A31462846B84701301CD0D4F8589043
:100560002AEAEA7AA9EB0A03002B40F371814FF0E3
:10057000000804F11A0B05E0A36DA3EB0A02424543
:1005800040F3658101235A4631462846B847013079
:1005900008F10108F0D14FF0FF3013B0BDE8F08F43
:1005A000424640464B46494602F0CAFF002840F00A
:1005B000F1806168481C00F01981BAF1670F00F002
:1005C000BD81BAF1470F00F0B8800020099BCDF83B
:1005D000308043F4806EC4F800E0CDF834900DF123
:1005E000400CCDF804E000910DF13C0E0DF13B0103
:1005F0000690DDE90C23CDF810A0CDF814C0CDF89D
:100600000CE002912846FFF75BFE0990BAF1650FF6
:100610000F9B40F2D980BAF1660F00F09681109AD4
:100620009A4200F30C8122682361D00701D55A1C3D
:1006300022614FF00008A3659DF83B30002B3FF48A
:1006400060AF2D2384F843305BE7D1F80490083184
:100650004B46CBF80010C4E9122326E7109A012A72
:1006600062DD0123099A31462846B847013092D00D
:100670000B9B0A9A31462846B84701308BD0D4E903
:1006800012010023002202F029FF109BA0B1012BD0
:100690001BDD4FF0000904F11A0A03E0109B013B37
:1006A0004B4512DD0123524631462846B8470130FA
:1006B00009F10109F2D16EE7099A013B0132314695
:1006C0002846B84701303FF466AF434604F1500274
:1006D00031462846B84701303FF45DAF236813F038
:1006E000020FE068119B16D0C21A002A13DD4FF0EA
:1006F000000804F1190904E0E068119BC21A4245A0
:1007000009DD01234A4631462846B847013008F141
:100710000108F1D13FE79842B8BF184613B0BDE8D1
:10072000F08F099A2369D3E7DB079AD4099A01234A
:10073000C5E72D2384F84330D4E6002900F0018179
:100740000020099BCDF8308043F4806EC4F800E0AF
:10075000CDF834900DF1400CCDF804E000910DF18E
:100760003C0E0DF13B010690DDE90C23CDF810A005
:10077000CDF814C0CDF80CE002912846FFF7A0FD9B
:1007800009900F9BD91C17DB6268934214DC4FF071
:10079000670A44E7099B032123F004032360044A0A
:1007A000044BA6E6FFFFEF7F845A0008805A00083A
:1007B0008C5A0008885A0008AAF1020A5FFA8AFADD
:1007C000BAF1650F3FF627AF013B1946524604F1D7
:1007D00050000F93FFF7F2FD109A80468318012A0C
:1007E000236140F3C0800133236125E706218B4656
:1007F0006160002009990DF1400C41F4806EC4F84D
:1008000000E00DF13B01CDF804E00DF13C0E069047
:1008100042464B46CDF810A0CDF800B0CDF814C03C
:10082000CDF80CE002912846FFF74AFDBAF1670FB8
:100830000990A6D0BAF1470F7FF4E8AEA1E7002BEC
:10084000CCBF0121C3F102010A442261F1E69946BD
:100850000F9B109A934236DB2168C90733D4A2EB71
:100860000908D31A9845A8BF9846B8F1000F0CDDC7
:10087000099B31464B441A4628464346B847013047
:100880003FF489AE109B0F9A9B1A28EAE879A3EBF4
:100890000903002B7FF722AF4FF0000804F11A0A7A
:1008A00007E0109B0F9A9B1AA3EB090343457FF7C0
:1008B00015AF0123524631462846B847013008F1AA
:1008C0000108EED167E60B9B0A9A31462846B847E5
:1008D00001303FF460AE109A0F9BC0E70123414AFC
:1008E00031462846B84701303FF455AE0F9A109B69
:1008F0009A4203DB2368DA077FF5F1AE0B9B0A9A75
:1009000031462846B84701303FF445AE109B012BD5
:100910007FF7E4AE4FF0000804F11A0904E0109BE1
:10092000013B43457FF7DAAE01234A46314628466C
:10093000B847013008F10108F1D12CE600297FF415
:10094000FFAE01239B46636053E7002B62683DDDE9
:1009500023611AB101321A4422616AE62168C8078C
:100960007FF567AEF6E72268D2077FF565AE3AE716
:1009700001231C4A31462846B84701303FF40BAEEC
:100980000F9B2BB9109B1BB92368D8077FF5A7AE27
:100990000B9B0A9A31462846B84701303FF4FBAD1D
:1009A0000F9B002B1ADA4FF0000804F11A0903E03C
:1009B0000F9B5B42434511DD01234A4631462846E1
:1009C000B847013008F10108F2D1E4E522B9216805
:1009D000C90701D4012238E7023236E7099A109B91
:1009E00076E600BF905A00082DE9F0470C460969E9
:1009F000A56891468D42B8BF0D46156094F8431026
:100A000006461F46DDF8208011B16A1CC9F8002097
:100A1000236899065DD5D9F800200232C9F8002074
:100A2000236813F0060F19461DD1E1688A1A002ABF
:100A3000D8BF194617DD002504F1190A05E0E3685F
:100A4000D9F800209B1AAB420CDD012352463946EF
:100A50003046C047013005F10105F0D14FF0FF30BD
:100A6000BDE8F087216894F84330003318BF0123B4
:100A70008A060AD53021E21882F8431094F845100E
:100A80005A1C224482F84310023304F143023946CF
:100A90003046C0470130E1D0236803F00603042B41
:100AA00029D0A36822699342C8BF4FF0000930DD06
:100AB0009B1A994400251A3401E04D4529D00123A1
:100AC000224639463046C047013005F10105F4D1D0
:100AD000C4E713F0060F08D1E168D9F800208A1A9C
:100AE000002AD8BF1946A6DCBDE794F8433000338E
:100AF00018BF0123C9E7D9F80010E068A36822698C
:100B0000A0EB0109934229EAE979D1DCB9F1000FA0
:100B1000D0D10020BDE8F0872DE9F0430C46097ED6
:100B200085B06E2906461746984604F1430C0C988A
:100B300055D00FD8632900F0198100F2D480002924
:100B40005CD0582940F0E68084F845102268DFF830
:100B50005CE213E0732900F0FB8000F289806F29CA
:100B600000F0E280702940F0D580226842F0200237
:100B700022607823DFF838E284F8453003681506F0
:100B800003F1040100F1FD8055064BBF1B881B6873
:100B900001600160D00744BF42F020022260002BB8
:100BA00040F093801021226822F02002226000226F
:100BB00084F8432060680028A060C0F28B8022681F
:100BC00022F004022260002B66D1002840F08480CD
:100BD000654608296ED0ACEB0503236111E023685C
:100BE0001A0600F1D18013F0400F0368626903F127
:100BF000040101601B6814BF1A801A600023654657
:100C00002361CDF800803B4603AA21463046FFF71A
:100C1000EBFE013021D02A46236939463046C047D1
:100C200001301AD02368E06813F0020F039B19D03B
:100C3000C21A002A16DD002504F1190904E0E06853
:100C4000039BC21AAA420DDD01234A4639463046AB
:100C5000C047013005F10105F1D14FF0FF3005B07B
:100C6000BDE8F0839842B8BF184605B0BDE8F083F0
:100C7000752959D078294DD122687AE72D206168ED
:100C80005B42002984F84300A16020DB0A2122F0A6
:100C90000402DFF818E122606546B3FBF1F201FBC4
:100CA00012331EF80300134605F8010D002AF4D193
:100CB000082990D12368D9078DD5626823699A42A3
:100CC00089DC3023013D2B7085E710216FE70A2175
:100CD000DFF8D8E0002BDFD19EF8003004F14205A8
:100CE00084F8423075E7642901D0692912D122685D
:100CF0000368150603F1040152D455064BBFB3F93E
:100D000000301B6801600160002BB7DB0A21DFF8AF
:100D10009CE04FE7012384F84210236104F142056F
:100D2000002384F843306CE723681A0633D413F0A9
:100D3000400F036803F1040215BF1B881B680260A3
:100D400002606F2914BF0A210821DFF860E02EE756
:100D500003686268191D01601D680021284601F0C2
:100D6000A1F800B3401B60602061D9E7012203684D
:100D700004F14205191D1B68016084F842302261AC
:100D8000CEE701601B6805E703686269191D016011
:100D90001B681A6032E703681A1D02601B68D0E7FF
:100DA00001601B68B0E76068DEE700BF945A000886
:100DB000A85A000820F0030110F00300C0F1000061
:100DC00051F8043B00F1040C4FEACC0C6FF0000228
:100DD0001CBF22FA0CF213434FF0010C4CEA0C2C0E
:100DE0004CEA0C4CA3EB0C0222EA030212EACC12EE
:100DF00004BF51F8043B0430F4D0C2F1000102EA10
:100E00000102B2FA82F2C2F11F0200EBD200704777
:100E10002DE9F04F03690F6983B09F4200F388808A
:100E2000013F01F1140600F1140A56F827305AF870
:100E300027200133B2FBF3F8BB00009306EB030954
:100E400053440193B8F1000F3BD00023B4461C4635
:100E5000D6465CF8042BDEF800501FFA82FB08FB34
:100E60000B33120C4FEA134B08FB02BB9AB2A21AC7
:100E7000ABB21FFA8BF41A44C4EB154404EB2244C2
:100E800092B242EA0442E1454EF8042B4FEA244470
:100E90004FEA1B43DDD2009B5AF803308BB9019C0B
:100EA000231F9A450CD254F8043C4BB9A4F1080313
:100EB00002E01A68043B1AB99A4507F1FF37F8D3E4
:100EC0000761044601F022FB00282DDB5546002374
:100ED00008F1010856F8041B28688AB29A1A0B0C0C
:100EE00081B20A44C3EB104303EB224392B242EABD
:100EF0000342B14545F8042B4FEA2343EAD25AF89E
:100F000027200AEB87037AB91A1F92450BD253F8B0
:100F1000042C42B9083B02E01A68043B1AB99A450E
:100F200007F1FF37F8D32761404603B0BDE8F08FE3
:100F3000002003B0BDE8F08F2DE9F04F466A97B06E
:100F40000446CDE90223239D002E00F0FA81336888
:100F500053B1012276681946B2409A605E6001F092
:100F600091F80022636A1A60DDE90223002B99469A
:100F70003EDB00232B60A64B33EA09031AD0DDE9E0
:100F80000267002200233046394602F0A7FA804665
:100F9000002835D00123229A1360249B002B00F0F7
:100FA000C8809C4B249A03F1FF391360484617B060
:100FB000BDE8F08F42F20F73229A1360029B7BB957
:100FC000C9F3130363B9249BDFF85892002BEDD0CB
:100FD00009F108034846249A136017B0BDE8F08F62
:100FE000249BDFF84492002BE0D009F10303F1E7E2
:100FF0000123039A2B6022F00049CDF80C90BAE748
:1010000014AA15AB0192009332463B46204601F0EC
:10101000B3FB5FEA195582466FD03046C7F313031E
:1010200043F07F51CDF83480DDF85080A5F2FF35D4
:1010300041F440110022784B01F034FE6EA3D3E955
:10104000002301F0E3FF6EA3D3E9002301F02CFE9F
:10105000064628460F4601F073FF6BA3D3E9002331
:1010600001F0D4FF02460B463046394601F01CFE23
:1010700006460F4602F07AFA002206900023304618
:10108000394602F035FA002840F06A81069E162E95
:1010900052D8DDE90223614901EBC601D1E9000123
:1010A00002F044FA002800F0C381731E0693002367
:1010B0000B93A8EB0505B5F1010B00F14B81002363
:1010C0000493069B002BC0F25D819B440A9300238E
:1010D0000993209B092B32D8052B40F384860025E9
:1010E000043B2093209B023B032B00F26786DFE842
:1010F00013F0E403C602EF037F04DDF85080159D72
:10110000454405F23243202B40F39481C3F1400360
:1011100009FA03F9029B05F2124023FA00F040EAB3
:10112000090001F0FDFE0123013D0D93A1F1F871CD
:1011300080E7DFF8F89039E701230B93B9E7002542
:10114000666A29467560204600F068FF4FF0FF335D
:101150001A460793636A3060D3F800900123219503
:1011600020950C920893159B002BC0F2CC80069A18
:101170000E2A00F3C880294B03EBC203D3E90023F6
:10118000CDE90423219B002BC0F2BF83DDE9026778
:10119000DDE904233046394602F062F802F0E6F950
:1011A000804601F0CDFEDDE9042301F02FFF024669
:1011B0000B463046394601F075FD079E08F13005B3
:1011C000012E89F8005002460B4609F101055ED058
:1011D0000022134B01F01AFF0022002306460F469F
:1011E00002F07CF900287BD1CDF808A00894DDE955
:1011F00004AB079C29E000BF61436F63A787D23F20
:10120000B3C8608B288AC63FFB799F501344D33FF5
:101210000000F07F915A00080000F83F4059000894
:1012200000002440BC5A0008C85A0008905A000820
:101230000022834B01F0EAFE0022002306460F46FF
:1012400002F04CF9002840F0D68352465B46304607
:10125000394602F005F802F089F9804601F070FE87
:1012600052465B4601F0D2FE02460B4630463946F6
:1012700001F018FD08F1300605F8016BA5EB090631
:10128000A64202460B46D3D1DDF808A0089C1046C2
:10129000194601F009FD06460F4602460B46DDE9F8
:1012A000040102F025F948B9DDE9040132463B4664
:1012B00002F014F9A0B118F0010F11D015F8018C4B
:1012C0006B1E04E0994500F04B8413F8018DB8F1D2
:1012D000390F03F10105F5D008F1010883F800800A
:1012E0005146204600F0CEFE0022069B2A70229A2C
:1012F00001331360249B002B3FF458AE48461D6019
:1013000017B0BDE8F08F089A002A44D0209A012A2D
:1013100040F32383079B099A5F1EBA42C0F2A88359
:10132000D71B079B002BC0F2AD84049D079B049A3A
:1013300001211A44204604929B4400F09BFF06467C
:101340002CE0102000F09EFD606246608660066022
:10135000C66009E6C5F1010304934FF0000BB0E647
:10136000DDF81890484601F0EBFD02460B4630468A
:10137000394602F0B3F800287FF488AE09F1FF3354
:10138000069383E60023049A0A93069BD21A5B42D3
:10139000049209939DE6099F049D089E002D0CDD93
:1013A000BBF1000F09DD5D452B46A8BF5B46049AE3
:1013B000ED1AD21A0492ABEB030B099BD3B1089B35
:1013C000002B00F0C382002F10DD31463A46204644
:1013D00000F0ECFF524601460646204600F054FF5E
:1013E0000346514620469A4600F04CFE099BDA1B04
:1013F00040F0AD820121204600F03CFF0A9B804670
:10140000002B1FDD01461A46204600F0CFFF209B2F
:101410008046012B40F35F8200230993D8F81030F7
:1014200008EB8303186900F0D5FEC0F1200013E03B
:101430000B903EE6C3F12009029B03FA09F070E627
:1014400000002440209B012B40F39082002309934D
:101450000A9B0120002BE1D1584410F01F0000F03E
:10146000A380C0F12003042B40F3C084C0F11C0012
:10147000049B0544034404938344049B002B05DD33
:1014800051461A46204600F0EDFF8246BBF1000FA0
:1014900005DD41465A46204600F0E4FF80460B9B9E
:1014A000002B40F08380079B002B40F36F82089B4A
:1014B000002B00F09580002D05DD31462A462046A0
:1014C00000F0D0FF0646099B002B40F053830496A2
:1014D000079B4F46013B4B440893029BCDF8289055
:1014E00003F00103C146DDF81080099349465046D8
:1014F000FFF78EFC31460546504601F007F842469C
:1015000049468346204601F01DF8C26805F13001C6
:1015100002910146002A40F034820790504600F0C4
:10152000F5FF079B04901946204600F0ABFD049A96
:1015300032B9209B23B9099B002B00F00E84209A1E
:10154000BBF1000FC0F2B48205D1209B1BB9099BEF
:10155000002B00F0AD82002A00F320839DF80830B4
:1015600007F1010B3B70089B5D469F4200F026830C
:10157000514600230A22204600F0A0FD464582463F
:1015800031464FF000034FF00A02204600F0F3818D
:1015900000F094FD4146064600230A22204600F052
:1015A0008DFD5F468046A1E71C2061E7414650461D
:1015B00000F0ACFF0028BFF676AF069F514600232F
:1015C0000A222046013F069700F078FD089B8246DC
:1015D000002B40F0D6830C9B002B40F3E383079352
:1015E0004D46079F06E0514600230A22204600F0A0
:1015F00065FD824641465046FFF70AFC303005F84B
:10160000010BA5EB0903BB42EDDB079B4FF0000B81
:10161000012BACBF09EB030509F10105029051460E
:101620000122204600F01EFF4146824600F06EFF78
:10163000002840F35E8215F8012C6B1E04E04B4538
:1016400000F0C08113F8012D392A03F10105F6D00D
:1016500001321A704146204600F014FD002E3FF47E
:101660003FAEBBF1000F05D0B34503D0594620462D
:1016700000F008FD3146204600F004FD30E600236E
:101680000893219A069B13440C930133012B1A46AD
:10169000B8BF01221E46964607930021676ABEF135
:1016A000170F79600AD9012204235B0003F11400AB
:1016B0007045114602F10102F7D97960204600F029
:1016C000ADFC636A0E2E3860D3F800903FF64BAD48
:1016D000002D3FF448ADDDE902230699CDE90E2344
:1016E000002940F31282BB4B01F00F0203EBC2034F
:1016F0000D11D3E90067EB0640F1C281DDE90E016F
:10170000B54B05F00F05D3E9082301F0A9FD03232C
:10171000CDE910010293A5B11294DFF8BC82029CBE
:10172000E80708D5D8E900233046394601F06EFCB9
:1017300006460F4601346D1008F10808F0D10294F6
:10174000129C3B46DDE91001324601F089FD074657
:1017500088460B9B43B10022A04B3846414601F01E
:10176000C7FE002840F0A082029801F0E9FB3A464B
:10177000434601F04BFC9A4B002201F095FAA1F18F
:101780005073CDE902010393079B002B00F04781C2
:10179000069B1293079B1093089B002B00F0198265
:1017A000109A8C4B002003EBC20353E902238D49AE
:1017B00001F056FDDDE9022301F074FACDE90201E2
:1017C0004146384601F0D2FE054601F0B9FB02461B
:1017D0000B463846414601F065FA30355FFA85F828
:1017E00006460F4602460B46DDE9020189F80080F5
:1017F00009F1010501F09AFE00285BD132463B4613
:101800000020764901F04EFA02460B46DDE902015E
:1018100001F08CFE002840F09982109A012A00F015
:101820002181109BCDF84CB04B44CDF840A0A04690
:10183000DDE902ABCDF8089099460FE032463B4611
:101840000020664901F02EFA52465B4601F050FE38
:10185000002840F074824D4500F0FD805046594606
:101860000022614B01F0D2FB00225F4B82468B4687
:101870003046394601F0CAFB0F46064601F076FEB7
:10188000044601F05DFB02460B463046394601F046
:1018900009FA3034E4B205F8014B52465B4606467D
:1018A0000F4601F025FE0028C8D04446DDF840A0D0
:1018B000DDF80890129B069312E500230893219B04
:1018C000002B40F3E4809E461E460C930793E4E60B
:1018D00001230893F3E7029B002B7FF49DADDDE924
:1018E0000212C2F31303002B7FF4B0AD22F00047C5
:1018F0003F0D3F05002F00F02D82049B0BF1010BE3
:101900000133049301230993A2E5079B002B3FF7C2
:101910003DAC40F04382DDE904010022334B01F08D
:1019200075FBDDE9022301F0F7FDDDF81C8046467A
:1019300000283ED0219B4D46DB430693414620467E
:1019400000F0A0FB002E3FF4CBAC93E6099A514681
:10195000204600F02BFD82464CE50D9A002A00F04F
:10196000978103F23343099F049DE0E4029B002B1F
:101970007FF46CADB3E700F0A1FB5F4606468046FE
:10198000B4E5204600F07EFB0122D9E5209B022B26
:101990007FF78DAD079B002BCCD141460522204619
:1019A00000F08CFB01468046504600F0AFFD002859
:1019B000C0DD3123069A89F800300132069209F120
:1019C0000105BBE73123069A89F8003001320692FF
:1019D00040E600BF40590008305A00080000F03FC0
:1019E00000001C400000E03F0000244000001440C4
:1019F0000123089345E6DDF808A0089C70E40298EE
:101A000001F09EFA3A46434601F000FBBC4B00222F
:101A100001F04AF9A1F15073CDE902010393384670
:101A200041460022B74B01F03DF9029A039B06465E
:101A30000F4601F07BFD8046002840F0C680DDE9BE
:101A40000201024601F100433046394601F050FDE3
:101A500040B146466EE74446DDF84CB0DDF840A0A4
:101A6000DDF80890DDE90E23CDE90223FFF77BBB0B
:101A7000099B0A9AFB1A1A4409970A92002750E414
:101A8000DDE90E23CDE910230223029343E6002370
:101A9000666A19467360204600F0C0FA01231A46B0
:101AA0000793636A3060D3F8009021920C920FE69E
:101AB000002ACDF81080C846DDF8289012DD514686
:101AC0000122204600F0CEFC4146824600F01EFD79
:101AD000002840F34F81029B392B00F00B8105F168
:101AE000310302939DF80830B3463B707D1C049E81
:101AF000B0E504D1029BDB0701D59CE5154615F83E
:101B0000013C6A1E302BF9D0A4E500F0C880DDE965
:101B10000E01069B5D427C4B05F00F0203EBC203F6
:101B2000D3E9002301F072FA2D11074688464FF0E1
:101B3000020300F03C8110941C46744EE90708D55E
:101B4000D6E900233846414601F060FA0746884648
:101B500001346D1006F10806F0D10294109CF8E5EE
:101B6000302289F80020069A15F8018C013206927D
:101B7000FFF7B2BB7168204600F050FA05463369A2
:101B800006F10C0102339A000C3000F0D1F929461D
:101B90000122204600F066FC049099E4029BCDF8F7
:101BA0001080392BC846DDF8289000F0A380029BF6
:101BB000B34601333B707D1C049E4BE54346B34660
:101BC000C8461E46DDF8289029E54FF00008464635
:101BD000EFE610984C49DDE9022301EBC00151E921
:101BE000020101F013FACDE902013846414601F045
:101BF000BDFC054601F0A4F902460B4638464146B5
:101C000001F050F8064610983035012889F8005048
:101C10000F4609F1010523D0109BCDF840B04B448D
:101C2000D3469A4600223A4B3046394601F0EEF947
:101C30000F46064601F09AFC804601F081F9024603
:101C40000B463046394601F02DF808F1300805F80A
:101C5000018B554506460F46E4D1DA46DDF840B023
:101C60000022DDE902012B4B01F01EF832463B4613
:101C700001F03EFC00284FD0129B069315F8018C12
:101C8000FFF71EBB049B079A9D1A0023FFF74FBB6B
:101C9000149B099FC3F13603049DFFF748BB022341
:101CA000DDE90E78029354E5079B002B3FF4A7AEC5
:101CB0000C9D002D7FF7D6AE0022154B38464146CD
:101CC00001F0A4F9074688460298013001F038F97E
:101CD0003A46434601F09AF9094B002200F0E4FF2E
:101CE000069BCDE90201013B1293A1F150730393CE
:101CF000109551E53922B3463A70049E7D1C9CE450
:101D000000001C400000144040590008305A0008F0
:101D1000000024400000E03FDDE9022300203849B4
:101D200000F0C0FF32463B4601F000FC08B999E6DE
:101D3000154615F8013C6A1E302BF9D0BAE543462A
:101D4000A0461C46DDF840A0DDF80890129B0693E3
:101D5000FFF7B6BA0997FFF77BBB029BCDF810805F
:101D6000392BC846DDF82890C4D0BBF1000F3FF7EF
:101D7000B6AEB7E67FF4B6AE029BDA077FF5B2AE39
:101D8000A9E6314600230A22204600F097F90C9B71
:101D90000646002B0DDD0793FFF78DBB4FF00008C3
:101DA0004646C7E5209B022B26DC0C9B17E40293DA
:101DB000CFE4209B022B1FDC0C9BECE70025666A1E
:101DC00029467560204600F029F94FF0FF331A4686
:101DD0000793636A3060D3F80090012321950C9239
:101DE0000893FFF7C0B90125FFF77CB93FF445AB75
:101DF000C0F13C00FFF73CBB0C9B0793CAE500BF5A
:101E00000000E03FB2B110B50B491046144600F097
:101E100067FE08B9094810BD0849204600F060FE79
:101E20000028F7D02046064900F05AFE0028F1D0DD
:101E3000002010BD01487047CC5A00087C5A0008A9
:101E4000A45A00080048704764000020014B186A3B
:101E5000704700BF640000200048704788000020E1
:101E60000020704700487047A8000020024B0A4637
:101E700001461868FFF7C6BF000000200048704701
:101E8000A8000020024B0146186800F0B9BD00BF51
:101E900000000020024B0146186800F069BD00BF39
:101EA00000000020830770B4CDB23DD0541E0AB3A9
:101EB0000378AB421FD0431C05E014F1FF3419D363
:101EC0000278AA4217D013F0030F184603F101035A
:101ED000F3D1032C11D84CB30378AB420BD004449C
:101EE000431C02E00278AA4205D09C42184603F146
:101EF0000103F7D1002070BC7047090289B2294361
:101F000041EA0141036806464B40A3F1013222EA4F
:101F1000030313F0803F00F1040003D1043C032CC1
:101F2000F0D8D8E73046D7E71446D2E72046E2E7B4
:101F3000844641EA000313F0030349D1403A23D316
:101F40000B6803604B6843608B688360CB68C36039
:101F50000B6903614B6943618B698361CB69C36121
:101F60000B6A03624B6A43628B6A8362CB6AC36209
:101F70000B6B03634B6B43638B6B8363CB6BC363F1
:101F800040304031403ADBD230320BD30B68036033
:101F90004B6843608B688360CB68C360103010313E
:101FA000103AF3D20C3205D351F8043B40F8043B0D
:101FB000043AF9D2043208D0D2071CBF11F8013B11
:101FC00000F8013B01D30B8803806046704700BFD7
:101FD000082A13D38B07B1D010F00303AED0C3F19E
:101FE0000403D21ADB071CBF11F8013B00F8013BC8
:101FF000A4D331F8023B20F8023B9FE7043AD9D33F
:10200000013A11F8013B00F8013BF9D20B7803705B
:102010004B7843708B7883706046704770B5446A24
:1020200006460D465CB1E36893B153F82500D8B17C
:10203000026843F8252000230361C36070BD1020AF
:10204000FFF720FF7062446084600460C46004464F
:1020500021220421304600F07DFC736AE060DB68D9
:10206000002BE2D1002070BD012101FA05F4621DB0
:102070003046920000F06EFC0028F3D0456084608A
:10208000D9E700BF30B5456A83B0044655B139B1D0
:10209000636A4A68DB6853F82200086043F822103C
:1020A00003B030BD10200191FFF7ECFE0199606292
:1020B000456085600560C560E9E700BFF0B50C4686
:1020C00005464FF0000E0E6983B001F11407386821
:1020D0000EF1010E81B202FB0133010C180C02FB60
:1020E00001019BB203EB0143764547F8043B4FEAFD
:1020F0001143ECDC3BB1A268964207DA04EB86029E
:10210000013653612661204603B0F0BD6168284660
:1021100001310193FFF782FF0746226904F10C01A8
:10212000023292000C30FFF703FF21462846FFF7EA
:10213000A9FF3C46019BE1E72DE9F843244C1F46EB
:10214000083384FB034EDB17C3EB6E0EBEF1010FA9
:1021500005460C469046089E35DD012300215B00B4
:102160009E4501F10101FADC2846FFF757FF0123E4
:10217000B8F1090F4661036121DD04F109094E46FA
:10218000444416F8013B0146303B0A222846FFF73B
:1021900095FFA642F5D1A8F108044C44474514DD4B
:1021A000A7EB0807274414F8013B0146303B0A22FD
:1021B0002846FFF783FFA742F5D1BDE8F8830A342C
:1021C0004FF00908EAE70021CEE7BDE8F88300BF39
:1021D000398EE338020C12040346B2B9030410200E
:1021E00013F07F4F04BF1B02083013F0704F04BF81
:1021F0001B01043013F0404F04BF9B000230002B42
:1022000002DB5B0003D4202070470020E8E70130A8
:10221000704700BF0368014613F0070207D0DA07D2
:1022200021D4980721D49B080B600220704798B2F4
:1022300098B1104613F0FF0F04BF1B0A08301A07AD
:1022400004BF1B0904309A0704BF9B080230DA0759
:1022500007D45B0804D1202070471B0C1020E9E74D
:1022600001300B607047002070475B080B60012055
:10227000704700BF10B50C460121FFF7CFFE0122C9
:102280004461026110BD00BF2DE9F04F0C69156972
:1022900083B0AC428B46164604DA2246B3462C463F
:1022A0000E461546DBF8083004EB0508DBF8041091
:1022B0009845C8BF0131FFF7B1FE00F1140909EBE1
:1022C000880AD145009005D24B46002143F8041BF3
:1022D0009A45FBD806F1140C0CEB85030BF1140B9B
:1022E0009C450BEB840E4BD2CDF804A09A46DCF84B
:1022F0000050AFB2E7B14D465E46002156F8042BC0
:10230000286893B284B2120C07FB0343000C07FB4E
:1023100002020B4402EB13419BB243EA0143B64570
:1023200045F8043B4FEA1141E8D82960DCF8005039
:102330002D0C1DD0D9F8003048461C4659460022C5
:102340000E88240C05FB06449BB2224443EA024358
:1023500040F8043B51F8043B04681B0CA6B205FB93
:1023600003638E4503EB12434FEA1342E8D8036040
:102370000CF1040CE24509F10409B8D8DDF804A019
:10238000B8F1000F0BDD5AF8043CAAF1040A1BB1A6
:1023900005E05AF8043D13B9B8F10108F9D10098E5
:1023A000C0F8108003B0BDE8F08F00BF2DE9F04108
:1023B00012F0030382B0144607462DD10E46A41036
:1023C0001CD07B6A8BB39D68002D39D0E3074FF09A
:1023D000000806D4641011D0286898B10546E307B8
:1023E000F8D531462A463846FFF74EFF03463146B8
:1023F00038461E46FFF746FE6410EDD1304602B067
:10240000BDE8F0812A4629463846FFF73DFF28609F
:10241000C0F800800546E2E7114A013B52F823204C
:102420000023FFF74BFE0646C9E710200193FFF794
:1024300029FD019B7862436083600360C3600346AB
:10244000012138460193FFF7E9FD012105460022ED
:1024500040F27120019B686129619D602A60B5E7A7
:10246000305900080B692DE9F0474FEA621A0AEB70
:1024700003088B6808F101049C420D46914607460B
:10248000496804DD5B009C4201F10101FADC384639
:10249000FFF7C4FDBAF1000F064600F1140332DD68
:1024A000002203EB8A0143F8042B8B42FBD12869FD
:1024B00005F1140319F01F0903EB800E1BD0002255
:1024C000C9F1200C186800FA09F0104341F8040B18
:1024D00053F8042B9E4522FA0CF2F3D80A600AB195
:1024E00008F10204013C384634612946FFF7CAFD71
:1024F0003046BDE8F087043953F8042B9E4541F877
:10250000042FF9D8EEE71946D1E700BF30B40B69C4
:1025100005460069C01A0FD19B00143514311944C7
:102520002B4401E09D4207D253F8044D51F8042D8D
:102530009442F7D002D3012030BC70474FF0FF30F7
:10254000FAE700BF2DE9F84F0C69894611699246F8
:10255000641A002C17D1890009F1140702F114063E
:102560007B18314401E09F4265D253F8045D51F875
:10257000042D9542F7D067D24B46BB46D14637462D
:102580009A46012405E061DB002409F114070AF1F1
:10259000140BD9F80410FFF741FD5D464FF0000819
:1025A000D9F810E0DAF810303E46C4600BEB830C2B
:1025B00007EB8E0700F1140456F8049B55F8042B22
:1025C0001FFA89F343441FFA82F8120CA3EB0803A5
:1025D000C2EB194202EB23429BB243EA0243AC45F1
:1025E00044F8043B4FEA2248E6D8B74217D9A4463C
:1025F000354655F8043B99B241440A1402EB1342A4
:1026000089B241EA0243AF424CF8043B4FEA224808
:10261000EFD8F643374427F0030704373C44043C23
:102620002BB954F8043D0EF1FF3E002BF9D0C0F851
:1026300010E0BDE8F88F0021FFF7F0FC0122002335
:1026400002614361BDE8F88FB346A2E74B4609F14A
:10265000140B02F11407914601249A4699E700BF32
:102660000F4B0B40A3F15073002B02DD00201946E5
:1026700070475B421B15132B0BDD143B1E2BD7BF82
:1026800001220123C3F11F0302FA03F300211846BC
:1026900070474FF40022002042FA03F1704700BF58
:1026A0000000F07F2DE9F041076900F1140606EB08
:1026B000870757F8048C4046FFF78CFDC0F12003D4
:1026C0000A280B60A7F1040318DCC0F10B0128FAFB
:1026D00001F29E4242F07F552CBF002257F8082C91
:1026E00000F1150338BFCA4008FA03F345F440155A
:1026F00043EA020420462946BDE8F0819E4220D2EA
:10270000B0F10B0257F8083C1FD008FA02F848F065
:102710007F58C2F1200EA7F1080148F4401823FAAF
:102720000EF08E4248EA000521D257F80C1C03FA3D
:1027300002F021FA0EF20243144620462946BDE873
:10274000F081B0F10B0209D113461C4648F07F55C9
:1027500045F4401520462946BDE8F08108FA02F00C
:10276000002240F07F5545F440151446E5E703FA92
:1027700002F21446E1E700BFF0B5012183B01C4628
:10278000C3F30A551646FFF749FCC4F31304074682
:102790000DB144F48014019406B302A840F8086D0A
:1027A000FFF738FD002830D19DE80C007A61002B3E
:1027B0000CBF01210221BB613961D5B9089A07EB31
:1027C0008103A0F2324010601869FFF703FD099BF6
:1027D000C0EB41101860384603B0F0BD01A8FFF708
:1027E00019FD0122019B114620303A617B61002DC9
:1027F000E4D0A5F23343089A03441360099BC0F167
:1028000035001860384603B0F0BD019BC0F12002CE
:10281000009903FA02F20A43C34001937A61C6E7C2
:102820002DE9F04383B00F4669460646FFF73AFFAD
:1028300004460D46384601A9FFF734FF36693A6968
:1028400089469DE80A00B61ACB1A03EB4613002B03
:1028500080460BDD05EB03573D4642464B4620467E
:10286000294600F0FDFC03B0BDE8F083C3EB033361
:1028700009EB03518946F0E71728D0B504460ADD75
:10288000002000260749084F32463B4600F0BEFBB9
:10289000013CF9D1D0BD054B03EBC004D4E90401E0
:1028A000D0BD00BF0000F03F0000244030590008B8
:1028B00070B414694E1E02F11403761103EB840107
:1028C00001368B4200EB86060CD2041F53F8045BE2
:1028D000994244F8045FF9D88B1A153B23F003039F
:1028E00004331844864204D9002340F8043B86424E
:1028F000FBD870BC704700BF03694A11934210B403
:1029000000F114040FDA04EB83039C421FD253F846
:10291000040C043B18B114E053F8042D8AB99C420E
:10292000FAD310BC70470FDD11F01F010CD054F822
:10293000220004EB820320FA01F202FA01F188423C
:10294000E3D0012010BC704704EB8203DDE70020D8
:10295000E7E700BF38B502FB01F4214600F050F86C
:10296000054618B122460021FDF75CFC284638BD1B
:1029700091B151F8043C0439002BB8BFC9181F4B62
:102980001A68FAB18A4230B40AD908680C18A2420F
:1029900026D04A60196030BC70478B4203D81A4673
:1029A0005368002BF9D1146815198D420DD006D843
:1029B00008680C189C4219D04B605160EBE70C235F
:1029C0000360E8E74A601960704709680C44111910
:1029D00099421460DFD10ACB0C4414605360DAE7EB
:1029E00014685268204481E80500D3E71C685B68DE
:1029F000204481E809005160CDE700BF2C01002090
:102A000070B5CC1C24F0030408340C2C38BF0C2403
:102A1000002C06463BDBA14239D8274D296851B12D
:102A20000B681B1B04D436E013681B1B1AD5114618
:102A30004A68002AF8D16968002937D02146304613
:102A400000F03CF8431C22D0C51C25F00305A84229
:102A500005D0291A304600F031F8013017D02A4647
:102A60002C6004E00B2B0DD913601A44146002F1A2
:102A70000B0020F00700131DC31A02D05942D15099
:102A800070BD70BD8A420ED053684B60EFE70C23D7
:102A90000020336070BD0B2B03D80A464B682B60B7
:102AA000E5E70A46E0E70B460A46F8E7304600F05D
:102AB00005F86860C2E700BF2C01002038B500238C
:102AC000064C05460846236000F0E7FE431C00D094
:102AD00038BD2368002BFBD02B6038BD400100209F
:102AE00080EA010C1CF0030F37D110F0030C20F02A
:102AF000030021F0030150F8042B08BF51F8043BF8
:102B00000ED08CF0030C6FF07F434FEACC0C23FA0D
:102B10000CFC51F8043B42EA0C0243EA0C0300BFF0
:102B2000A2F1013C9A4201BF2CEA020C1CF0803F4A
:102B300050F8042B51F8043BF2D04FEA02604FEA00
:102B40001222012828BFB0EB036F08BF1B0AF4D084
:102B500003F0FF03000EC01A704710F0030F0AD0F5
:102B600010F8012B11F8013B012A28BF9A42F4D03A
:102B7000A2EB030070474DF8045D50F8042B01F000
:102B8000030521F0030151F8043B022D26D04DD856
:102B900022F07F45B5EB132FA2F1013C2CEA020C89
:102BA0000DD11CF0803C08BF51F8043B0AD185EAE6
:102BB0000205B5EB036F0CD150F8042BE8E74FEAA0
:102BC00013235BE03CF07F4C54D10B784FEA126545
:102BD00054E04FEA126503F0FF034FE04FEA02456D
:102BE000A2F1013C4FEA15452CEA020CB5EB134F5C
:102BF00018D11CF0803C08BF51F8043B07D185EA8E
:102C00000205B5EB034F09D150F8042BE6E75FEA64
:102C10000C4C2FD10B884FEA12452FE04FEA0343AB
:102C20004FEA12454FEA134328E000BF02F0FF05C8
:102C3000B5EB136FA2F1013C2CEA020C0DD11CF094
:102C4000803C08BF51F8043B0AD185EA0205B5EB88
:102C5000032F0AD150F8042BE8E74FEA13630DE085
:102C600012F0FF0F06D051F8043B4FEA122523F073
:102C70007F4303E04FF0000020BC704705F0FF02E7
:102C800003F0FF00012828BF904204BF2D0A1B0A51
:102C9000F4D0A2EB000020BC704700BF81F00041DF
:102CA00002E000BF83F0004330B54FEA41044FEA31
:102CB000430594EA050F08BF90EA020F1FBF54EACC
:102CC000000C55EA020C7FEA645C7FEA655C00F068
:102CD000E2804FEA5454D4EB5555B8BF6D420CDD39
:102CE0002C4480EA020281EA030382EA000083EABC
:102CF000010180EA020281EA0303362D88BF30BD5C
:102D000011F0004F4FEA01314FF4801C4CEA1131B1
:102D100002D0404261EB410113F0004F4FEA033310
:102D20004CEA133302D0524263EB430394EA050F9B
:102D300000F0A780A4F10104D5F1200E0DDB02FA0A
:102D40000EFC22FA05F2801841F1000103FA0EF29E
:102D5000801843FA05F359410EE0A5F120050EF164
:102D6000200E012A03FA0EFC28BF4CF0020C43FA95
:102D700005F3C01851EBE37101F0004507D54FF0A2
:102D8000000EDCF1000C7EEB00006EEB0101B1F5F2
:102D9000801F1BD3B1F5001F0CD349085FEA300038
:102DA0004FEA3C0C04F101044FEA445212F5800F43
:102DB00080F09A80BCF1004F08BF5FEA500C50F1E0
:102DC000000041EB045141EA050130BD5FEA4C0CC3
:102DD000404141EB010111F4801FA4F10104E9D14C
:102DE00091F0000F04BF01460020B1FA81F308BF43
:102DF0002033A3F10B03B3F120020CDA0C3208DD0F
:102E000002F1140CC2F10C0201FA0CF021FA02F1E9
:102E10000CE002F11402D8BFC2F1200C01FA02F159
:102E200020FA0CFCDCBF41EA0C019040E41AA2BF7E
:102E300001EB0451294330BD6FEA04041F3C1CDA46
:102E40000C340EDC04F11404C4F1200220FA04F066
:102E500001FA02F340EA030021FA04F345EA030110
:102E600030BDC4F10C04C4F1200220FA02F001FAD2
:102E700004F340EA0300294630BD21FA04F0294654
:102E800030BD94F0000F83F4801306BF81F48011ED
:102E90000134013D4EE77FEA645C18BF7FEA655C60
:102EA00029D094EA050F08BF90EA020F05D054EA32
:102EB000000C04BF1946104630BD91EA030F1EBF37
:102EC0000021002030BD5FEA545C05D1400049413B
:102ED00028BF41F0004130BD14F580043CBF01F52E
:102EE000801130BD01F0004545F0FE4141F4700114
:102EF0004FF0000030BD7FEA645C1ABF19461046EF
:102F00007FEA655C1CBF0B46024650EA013406BFEF
:102F100052EA033591EA030F41F4002130BD00BFAE
:102F200090F0000F04BF0021704730B54FF480646B
:102F300004F132044FF000054FF0000150E700BFEC
:102F400090F0000F04BF0021704730B54FF480644B
:102F500004F1320410F0004548BF40424FF0000138
:102F60003EE700BF42004FEAE2014FEA31014FEA7B
:102F700002701FBF12F07F4393F07F4F81F06051CA
:102F8000704792F0000F14BF93F07F4F704730B539
:102F90004FF4607401F0004521F0004120E700BFCC
:102FA00050EA010208BF704730B54FF000050AE053
:102FB00050EA010208BF704730B511F0004502D554
:102FC000404261EB41014FF4806404F132045FEA56
:102FD000915C3FF4DCAE4FF003025FEADC0C18BFFB
:102FE00003325FEADC0C18BF033202EBDC02C2F1F1
:102FF000200300FA03FC20FA02F001FA03FE40EA83
:103000000E0021FA02F11444C1E600BF70B54FF082
:10301000FF0C4CF4E06C1CEA11541DBF1CEA135564
:1030200094EA0C0F95EA0C0F00F0DEF82C4481EACC
:10303000030621EA4C5123EA4C5350EA013518BFEC
:1030400052EA033541F4801143F4801338D0A0FBD9
:1030500002CE4FF00005E1FB02E506F00042E0FB86
:1030600003E54FF00006E1FB03569CF0000F18BF8C
:103070004EF0010EA4F1FF04B6F5007F64F5407434
:1030800004D25FEA4E0E6D4146EB060642EAC621C7
:1030900041EA55514FEAC52040EA5E504FEACE2E34
:1030A000B4F1FD0C88BFBCF5E06F1ED8BEF1004F37
:1030B00008BF5FEA500E50F1000041EB045170BDB3
:1030C00006F0004646EA010140EA020081EA0301F7
:1030D000B4EB5C04C2BFD4EB0C0541EA045170BDF3
:1030E00041F480114FF0000E013C00F3AB8014F16D
:1030F000360FDEBF002001F0004170BDC4F10004B6
:10310000203C35DA0C341BDC04F11404C4F1200536
:1031100000FA05F320FA04F001FA05F240EA020091
:1031200001F0004221F0004110EBD37021FA04F6C7
:1031300042EB06015EEA430E08BF20EAD37070BD81
:10314000C4F10C04C4F1200500FA04F320FA05F0E0
:1031500001FA04F240EA020001F0004110EBD370E2
:1031600041F100015EEA430E08BF20EAD37070BD52
:10317000C4F1200500FA05F24EEA020E20FA04F32B
:1031800001FA05F243EA020321FA04F001F00041DA
:1031900021FA04F220EA020000EBD3705EEA430E4B
:1031A00008BF20EAD37070BD94F0000F0FD101F07A
:1031B0000046400041EB010111F4801F08BF013CB3
:1031C000F7D041EA060195F0000F18BF704703F0F1
:1031D0000046520043EB030313F4801F08BF013D78
:1031E000F7D043EA0603704794EA0C0F0CEA135534
:1031F00018BF95EA0C0F0CD050EA410618BF52EAEE
:103200004306D1D181EA030101F000414FF00000F3
:1032100070BD50EA410606BF1046194652EA430601
:1032200019D094EA0C0F02D150EA013613D195EA75
:103230000C0F05D152EA03361CBF104619460AD1BD
:1032400081EA030101F0004141F0FE4141F47001C7
:103250004FF0000070BD41F0FE4141F4780170BDB7
:1032600070B54FF0FF0C4CF4E06C1CEA11541DBF1C
:103270001CEA135594EA0C0F95EA0C0F00F0A7F81E
:10328000A4EB050481EA030E52EA03354FEA01314B
:1032900000F088804FEA03334FF0805545EA13135E
:1032A00043EA12634FEA022245EA111545EA106526
:1032B0004FEA00260EF000419D4208BF964244F1BD
:1032C000FD0404F5407402D25B084FEA3202B61ADC
:1032D00065EB03055B084FEA32024FF480104FF4B0
:1032E000002CB6EB020E75EB030E22BFB61A754624
:1032F00040EA0C005B084FEA3202B6EB020E75EBB7
:10330000030E22BFB61A754640EA5C005B084FEA1E
:103310003202B6EB020E75EB030E22BFB61A7546EB
:1033200040EA9C005B084FEA3202B6EB020E75EBF6
:10333000030E22BFB61A754640EADC0055EA060EB7
:1033400018D04FEA051545EA16754FEA06164FEAFA
:10335000C30343EA52734FEAC2025FEA1C1CC0D1A6
:1033600011F4801F0BD141EA00014FF000004FF033
:10337000004CB6E711F4801F04BF01430020B4F1F4
:10338000FD0C88BFBCF5E06F3FF6AFAEB5EB030CAC
:1033900004BFB6EB020C5FEA500C50F1000041EBA9
:1033A000045170BD0EF0004E4EEA113114EB5C0476
:1033B000C2BFD4EB0C0541EA045170BD41F4801149
:1033C0004FF0000E013C90E645EA060E8DE60CEA51
:1033D000135594EA0C0F08BF95EA0C0F3FF43BAF6E
:1033E00094EA0C0F0AD150EA01347FF434AF95EA25
:1033F0000C0F7FF425AF104619462CE795EA0C0F09
:1034000006D152EA03353FF4FDAE1046194622E7D5
:1034100050EA410618BF52EA43067FF4C5AE50EAAF
:1034200041047FF40DAF52EA43057FF4EBAE12E79F
:103430004FF0FF3C06E000BF4FF0010C02E000BF80
:103440004FF0010C4DF804CD4FEA410C7FEA6C5C63
:103450004FEA430C18BF7FEA6C5C1BD001B050EA06
:10346000410C0CBF52EA430C91EA030F02BF90EAF1
:10347000020F0020704710F1000F91EA030F58BFB0
:10348000994208BF90422CBFD8176FEAE37040F012
:10349000010070474FEA410C7FEA6C5C02D150EAB0
:1034A000013C07D14FEA430C7FEA6C5CD6D152EA6B
:1034B000033CD3D05DF8040B704700BF8446104630
:1034C00062468C461946634600E000BF01B5FFF72F
:1034D000B7FF002848BF10F1000F01BD4DF808EDFF
:1034E000FFF7F4FF0CBF012000205DF808FB00BFD0
:1034F0004DF808EDFFF7EAFF34BF012000205DF82A
:1035000008FB00BF4DF808EDFFF7E0FF94BF012076
:1035100000205DF808FB00BF4DF808EDFFF7CEFF77
:1035200094BF012000205DF808FB00BF4DF808EDB6
:10353000FFF7C4FF34BF012000205DF808FB00BF87
:103540004FEA410C7FEA6C5C02D150EA013C0AD19F
:103550004FEA430C7FEA6C5C02D152EA033C02D191
:103560004FF0000070474FF0010070474FEA4102F2
:1035700012F5001215D211D56FF47873B3EB6252C5
:1035800012D94FEAC12343F0004343EA505311F0EC
:10359000004F23FA02F018BF404270474FF000007E
:1035A000704750EA013005D111F0004008BF6FF0BC
:1035B000004070474FF00000704700BF80B500AF7B
:1035C00000F052F800F086FC482000F0C7F900F047
:1035D00091FA01211D4800F09DFF00F02DFB1C4ACF
:1035E0000221012000F065FB00F03CFA0346194976
:1035F000184601F045FD0346184601F091FE0246CB
:10360000154B1A60642000F0D1F9134B1B68134A64
:1036100082FB03129210DB17D01A0F4B1A680F4B64
:1036200083FB02139910D317C91A0B469B000B4456
:103630005B00D11A0B46024609490A4801F0B8FE60
:10364000084A0021022000F034FBCDE700023000E0
:10365000585A000800002041440100206766666651
:10366000685A00084801002080B400AF214A214B6D
:103670001B6843F48033136000BF1E4B1B6803F4C8
:103680000033002BF9D01C4B12221A60194A194B37
:103690005B6823F4741323F4E0635360154A154BFD
:1036A0005B6843F4E81343F480635360114A114BA1
:1036B0001B6843F08073136000BF0E4B1B6803F060
:1036C0000073002BF9D00B4A0A4B5B6823F003030D
:1036D0005360084A074B5B6843F00203536000BF26
:1036E000044B5B6803F00C03082BF9D100BFBD4607
:1036F00080BC7047001002400020024080B582B0BC
:1037000000AF124B7B60124B3B6007E03B681A1D19
:103710003A607A68111D796012681A603B680D4A38
:103720009342F3D30C4B3B6004E03B681A1D3A60B4
:1037300000221A603B68094A9342F6D3FCF74AFD1F
:10374000FFF73CFF00BF0837BD4680BD045B0008A3
:103750000000002010010020100100204001002086
:1037600080B400AFFEE700BF80B483B000AF7860E4
:10377000FEE780B483B000AF78604FF0FF331846A7
:103780000C37BD4680BC704780B485B000AFF86090
:10379000B9607A60044B0C221A604FF0FF33184670
:1037A0001437BD4680BC70474001002080B400AF94
:1037B000044B0B221A604FF0FF331846BD4680BC05
:1037C000704700BF4001002080B483B000AF786034
:1037D00039603B684FF400525A60002318460C379A
:1037E000BD4680BC704780B400AF01231846BD467B
:1037F00080BC704780B483B000AF78600123184666
:103800000C37BD4680BC704780B483B000AF786091
:103810003960054B16221A604FF0FF3318460C37FB
:10382000BD4680BC704700BF4001002080B483B01B
:1038300000AF78603960054B1F221A604FF0FF33EC
:1038400018460C37BD4680BC704700BF40010020C1
:1038500080B485B000AFF860B9607A600023184684
:103860001437BD4680BC704780B485B000AFF860A7
:10387000B9607A604FF0FF3318461437BD4680BCFC
:10388000704780B485B000AFF860B9607A600023FB
:1038900018461437BD4680BC704780B485B000AF71
:1038A00078600F4B1B68002B02D10D4B0D4A1A603C
:1038B0000B4B1B68FB600A4B1A687B6813446A4613
:1038C000934200D9FEE7064B1A687B681344044A0A
:1038D0001360FB6818461437BD4680BC704700BFB4
:1038E000380100204001002080B483B000AF786030
:1038F00039603B684FF400525A60002318460C3779
:10390000BD4680BC704780B483B000AF78604FF094
:10391000FF3318460C37BD4680BC704780B483B077
:1039200000AF7860044B02221A604FF0FF33184654
:103930000C37BD4680BC70474001002080B483B086
:1039400000AF7860044B0A221A604FF0FF3318462C
:103950000C37BD4680BC70474001002080B483B066
:1039600000AF0346FB710E4A0D4B1B6823F00403A6
:103970001360FB79DB08DAB20A4B1A70094B1B782B
:103980009BB21A465201D21A92001344DB009AB23B
:10399000054B1A8000BF0C37BD4680BC704700BF86
:1039A00010E000E03C0100203E01002080B485B022
:1039B00000AF7860124A134B1B8819467B6803FBE3
:1039C00001F353600E4B00229A600D4B01221A60E6
:1039D0000B4B1B68FB60FB6803F00103002B04D05A
:1039E000FB6803F48033002BF2D0054B00221A60F1
:1039F000034B00229A6000BF1437BD4680BC70475D
:103A000010E000E03E01002080B485B000AF786097
:103A1000124A134B1B7819467B6803FB01F3536072
:103A20000E4B00229A600D4B01221A600B4B1B6853
:103A3000FB60FB6803F00103002B04D0FB6803F478
:103A40008033002BF2D0054B00221A60034B00227A
:103A50009A6000BF1437BD4680BC704710E000E09C
:103A60003C01002080B584B000AF0023FB7300F060
:103A700053F9CC2000F076F9442000F073F903E00C
:103A800000F0B2F90346FB73FB7B002B03D1BB892B
:103A9000B3F5FA6FF4D300F03FF9CC2000F062F9EF
:103AA000BE2000F05FF900F09FF90346FB7200F0C2
:103AB0009BF90346BB72BB7A3B813B891B023B816E
:103AC000FB7A9AB23B8913433B813B89184601F04C
:103AD0007FFA03464FF08341184601F085FB034609
:103AE0007B60C820FFF762FF7B6818461037BD4631
:103AF00080BD000080B582B000AF0121012001F03F
:103B000097F80121042001F093F840F2FF73BB8085
:103B10001023FB710323BB713B1D1946034800F0C2
:103B200049FB00BF0837BD4680BD00BF000801400B
:103B300080B584B000AF78600B467B8013467B7005
:103B40000121082001F074F87B88BB817B78FB732E
:103B50000323BB7307F10C031946786800F02AFBB6
:103B600000BF1037BD4680BD80B582B000AF0346B0
:103B7000FB714FF48071154800F035FC4FF4007173
:103B8000124800F03EFC0A20FFF73EFF4FF4806130
:103B90000E4800F028FC0520FFF736FF0B4A0B4BC0
:103BA000DB6803F47F43D3600849084BDA68FB798C
:103BB0001343CB600A20FFF727FF4FF480610348CF
:103BC00000F01FFC00BF0837BD4680BD0008014063
:103BD00080B582B000AF0346FB714FF48071154889
:103BE00000F00FFC4FF40071124800F00AFC0A20AC
:103BF000FFF70AFF4FF480610E4800F0F4FB052048
:103C0000FFF702FF0B4A0B4BDB6803F47F43D360E3
:103C10000849084BDA68FB791343CB600A20FFF7A9
:103C2000F3FE4FF48061034800F0EBFB00BF083760
:103C3000BD4680BD0008014080B500AF1420FFF7ED
:103C4000B5FE3C20FFF7C4FF0520FFF7AFFE0C20B8
:103C5000FFF7BEFF0520FFF7A9FE0120FFF7B8FF21
:103C60000520FFF7A3FE0220FFF7B2FF0520FFF7B4
:103C70009DFE00BF80BD80B584B000AF786000239A
:103C8000FB600CE0FB687A6813441B781846FFF76A
:103C90006BFFFB680133FB606420FFF7B5FEFB6838
:103CA0007A6813441B78002BECD100BF1037BD4657
:103CB00080BD80B584B000AF03463A60FB710B460F
:103CC000BB710023FB81FB79012B02D10023FB8117
:103CD00004E0FB79022B01D14023FB81FB89DAB29E
:103CE000BB791344DBB2803BDBB21846FFF770FFB1
:103CF0006420FFF789FE3868FFF7BDFF00BF10376B
:103D0000BD4680BD80B500AF0120FFF761FF0520F3
:103D1000FFF74CFE00BF80BD80B500AF14224FF40A
:103D200000710F48FFF704FF4FF400710C4800F0DA
:103D300068FB4FF4FA70FFF767FE04224FF400713E
:103D40000748FFF7F5FE4FF4FA70FFF75DFE042217
:103D50004FF400710248FFF7EBFE00BF80BD00BFCB
:103D6000000C014080B584B000AF0346FB71002316
:103D7000FB732FE014224FF400711A48FFF7D8FEAE
:103D80004FF40071174800F03CFB0220FFF73CFEA7
:103D9000FB7903F00103002B05D04FF400711148AB
:103DA00000F021FB04E04FF400710E4800F029FB05
:103DB000FB795B08FB713C20FFF726FE04224FF4E1
:103DC00000710848FFF7B4FE0220FFF71DFEFB7BE1
:103DD0000133FB73FB7B072BCCD900BF1037BD46EB
:103DE00080BD00BF000C014080B582B000AF002351
:103DF000BB710023FB712EE014224FF400711A48AE
:103E0000FFF796FE4FF40071174800F0FAFA02200F
:103E1000FFF7FAFD04224FF400711348FFF788FE04
:103E20000820FFF7F1FD4FF400710F4800F091FA00
:103E30000346002B09D0FB79012202FA03F35AB2A0
:103E400097F9063013435BB2BB717820FFF7DCFDB6
:103E5000FB790133FB71FB79072BCDD9BB79184670
:103E60000837BD4680BD00BF000C014080B500AFE3
:103E7000154A154B1B6843F0010313601249124B9E
:103E80005A68124B13404B600F4A0F4B1B6823F0CC
:103E9000847323F4803313600B4A0B4B1B6823F4A9
:103EA00080231360084A084B5B6823F4FE035360C9
:103EB000054B4FF41F029A6000F078F8044B4FF066
:103EC00000629A6000BF80BD001002400000FFF851
:103ED00000ED00E080B485B000AF0023FB6000235C
:103EE000BB6000237B602C4B5B6803F00C03FB6022
:103EF000FB68042B07D0082B09D0002B33D1274BAC
:103F0000274A1A6033E0254B254A1A602FE0224BDE
:103F10005B6803F47013BB601F4B5B6803F4803372
:103F20007B60BB689B0C0233BB607B68002B06D1B7
:103F3000BB681C4A02FB03F3184A136017E0164BD8
:103F40005B6803F40033002B06D0BB68154A02FB04
:103F500003F3124A13600AE0BB68114A02FB03F341
:103F60000E4A136003E00D4B0D4A1A6000BF0A4B66
:103F70005B681B0903F00F030B4AD35CDBB2FB60E9
:103F8000064B1A68FB6822FA03F3044A136000BF69
:103F90001437BD4680BC704700100240E00000208E
:103FA00000127A0000093D00E400002080B500AF57
:103FB00000F002F800BF80BD80B483B000AF0023E2
:103FC0007B6000233B603A4A394B1B6843F48033E3
:103FD0001360374B1B6803F400333B607B6801338D
:103FE0007B603B68002B03D17B68B3F5A06FF0D1F9
:103FF0002F4B1B6803F40033002B02D001233B60DE
:1040000001E000233B603B68012B4BD1294A294B3F
:104010001B6843F010031360264A264B1B6823F0ED
:1040200007031360234A234B1B6843F0020313600A
:104030001F4A1F4B5B6853601D4A1D4B5B685360F2
:104040001B4A1B4B5B6843F480635360184A184B50
:104050005B6823F47C135360154A154B5B6843F48B
:10406000E8135360124A124B1B6843F080731360CD
:1040700000BF0F4B1B6803F00073002BF9D00C4AF4
:104080000B4B5B6823F003035360094A084B5B68E2
:1040900043F00203536000BF054B5B6803F00C0361
:1040A000082BF9D100BF0C37BD4680BC704700BF5C
:1040B000001002400020024080B582B000AF78605E
:1040C0007B682F4A934208D10121042000F0ECFDC7
:1040D0000021042000F0E8FD4EE07B68294A93426D
:1040E00008D10121082000F0DFFD0021082000F0A8
:1040F000DBFD41E07B68244A934208D10121102076
:1041000000F0D2FD0021102000F0CEFD34E07B68ED
:104110001E4A934208D10121202000F0C5FD002154
:10412000202000F0C1FD27E07B68194A934208D1A6
:104130000121402000F0B8FD0021402000F0B4FD36
:104140001AE07B68134A934208D10121802000F0D5
:10415000ABFD0021802000F0A7FD0DE07B680E4A3A
:10416000934209D101214FF4807000F09DFD0021A0
:104170004FF4807000F098FD00BF0837BD4680BD49
:1041800000080140000C01400010014000140140F3
:1041900000180140001C01400020014080B500AF24
:1041A0000121012000F080FD0021012000F07CFDB4
:1041B00000BF80BD80B489B000AF78603960002353
:1041C000FB6100233B610023BB610023FB600023F4
:1041D0007B610023BB603B68DB7803F00F03FB616E
:1041E0003B68DB7803F01003002B05D03B689B781D
:1041F0001A46FB691343FB613B681B88DBB2002B4B
:1042000044D07B681B687B610023BB6138E00122DE
:10421000BB6902FA03F3FB603B681B881A46FB6824
:1042200013403B613A69FB689A4226D1BB699B0007
:10423000FB600F22FB6802FA03F3BB60BB68DB4341
:104240007A6913407B61FA69FB6802FA03F37A69C1
:1042500013437B613B68DB78282B05D10122BB69C6
:104260009A407B685A6108E03B68DB78482B04D1B0
:104270000122BB699A407B681A61BB690133BB614B
:10428000BB69072BC3D97B687A691A603B681B88B6
:10429000FF2B46D97B685B687B610023BB613AE0FA
:1042A000BB690833012202FA03F3FB603B681B88F9
:1042B0001A46FB6813403B613A69FB689A4227D172
:1042C000BB699B00FB600F22FB6802FA03F3BB6033
:1042D000BB68DB437A6913407B61FA69FB6802FAC9
:1042E00003F37A6913437B613B68DB78282B05D1A4
:1042F000BB69083301229A407B685A613B68DB78CE
:10430000482B05D1BB69083301229A407B681A61AA
:10431000BB690133BB61BB69072BC1D97B687A6973
:104320005A6000BF2437BD4680BC704780B483B05C
:1043300000AF78607B684FF6FF721A807B680222BC
:104340009A707B680422DA7000BF0C37BD4680BCCF
:10435000704780B485B000AF78600B467B80002347
:10436000FB737B689A687B881340002B02D0012383
:10437000FB7301E00023FB73FB7B18461437BD463B
:1043800080BC704780B483B000AF78607B689B6866
:104390009BB218460C37BD4680BC704780B485B0D0
:1043A00000AF78600B467B800023FB737B68DA6884
:1043B0007B881340002B02D00123FB7301E0002314
:1043C000FB73FB7B18461437BD4680BC704780B436
:1043D00083B000AF78607B68DB689BB218460C370F
:1043E000BD4680BC704780B483B000AF78600B4698
:1043F0007B807A887B681A6100BF0C37BD4680BC21
:10440000704780B483B000AF78600B467B807A88B9
:104410007B685A6100BF0C37BD4680BC704780B4D2
:1044200083B000AF78600B467B8013467B707B784F
:10443000002B03D07A887B681A6102E07A887B6857
:104440005A6100BF0C37BD4680BC704780B483B052
:1044500000AF78600B467B807A887B68DA6000BFAB
:104460000C37BD4680BC704780B485B000AF786023
:104470000B467B804FF48033FB607B88FA681343E4
:10448000FB607B68FA689A617A887B689A617B68CE
:10449000FA689A617B689B69FB607B689B69FB603B
:1044A00000BF1437BD4680BC704780B485B000AFF4
:1044B00003460A46FB711346BB710023FB600C4B9D
:1044C0001B68FB60FA684FF680731340FB60FB7952
:1044D0001B01FA681343FB60BB79FA681343FB6066
:1044E000034AFB68136000BF1437BD4680BC7047A9
:1044F0000000014080B483B000AF0346FB71044A62
:10450000FB79136000BF0C37BD4680BC704700BF0D
:104510001C00204280B487B000AF78600B46FB706F
:1045200000233B610023FB6000237B610023BB6011
:104530007B68002B03DA2E4BDB697B6102E02C4B9E
:104540005B687B617B681B0C03F00F03BB607B68BF
:104550009BB23B617B6803F44013B3F5401F0AD163
:104560007B6923F070637B61214A214B5B6823F0F8
:104570007063536021E07B6803F48013002B0ED03E
:104580000322BB6802FA03F3FB60FB68DB437A6932
:1045900013407B617B6943F070637B610DE07B6856
:1045A0005B0D1B013A6902FA03F3DB437A6913409E
:1045B0007B617B6943F070637B61FB78002B08D0E3
:1045C0007B685B0D1B013A6902FA03F37A691343B6
:1045D0007B617B68002B03DA054A7B69D36102E0CB
:1045E000034A7B69536000BF1C37BD4680BC7047DF
:1045F0000000014090B484B000AF03460A46FB714E
:104600001346BB710023FB60BB7903F003039B00DF
:104610000F2202FA03F3FB601649BB799B08DBB259
:104620001846144ABB799B08DBB2023352F82320A8
:10463000FB68DB431A40831C41F823200D48BB79FB
:104640009B08DBB21C460B4ABB799B08DBB20233EA
:1046500052F82320F979BB7903F003039B0001FA98
:1046600003F31A43A31C40F8232000BF1037BD46B4
:1046700090BC70470000014080B483B000AF786008
:10468000034A7B68136000BF0C37BD4680BC70478F
:10469000DC00204280B400AF134A134B1B6843F088
:1046A000010313601049104B5A68104B13404B60C4
:1046B0000D4A0D4B1B6823F0847323F48033136081
:1046C000094A094B1B6823F480231360064A064BF2
:1046D0005B6823F4FE035360034B4FF41F029A60A0
:1046E00000BFBD4680BC7047001002400000FFF8CC
:1046F00080B483B000AF7860134A134B1B6823F477
:1047000080331360104A104B1B6823F4802313601E
:104710007B68B3F5803F03D0B3F5802F07D00DE061
:10472000094A094B1B6843F48033136006E0064ACC
:10473000054B1B6843F4A023136000BF00BF0C3778
:10474000BD4680BC704700BF0010024080B582B0FB
:1047500000AF00233B600023FB710023BB713120BD
:1047600000F00EFB0346BB713B6801333B603B68C6
:10477000B3F5A06F02D0BB79002BF0D0312000F050
:10478000FFFA0346002B02D00123FB7101E0002356
:10479000FB71FB7918460837BD4680BD80B485B0F3
:1047A00000AF0346FB710023FB600A4B1B68FB60F4
:1047B000FB6823F0F803FB60FB79DB00FA68134326
:1047C000FB60044AFB68136000BF1437BD4680BC21
:1047D000704700BF0010024080B483B000AF0346B2
:1047E000FB71044AFB79136000BF0C37BD4680BCE7
:1047F000704700BF0000424280B485B000AF7860CF
:1048000039600023FB600A4B5B68FB60FB6823F4A4
:104810007C13FB607A683B681343FA681343FB60C0
:10482000034AFB68536000BF1437BD4680BC704725
:104830000010024080B483B000AF0346FB71044A0D
:10484000FB79136000BF0C37BD4680BC704700BFCA
:104850006000424280B485B000AF78600023FB6006
:10486000094B5B68FB60FB6823F00303FB60FA689D
:104870007B681343FB60044AFB68536000BF143736
:10488000BD4680BC704700BF0010024080B400AF3E
:10489000044B5B68DBB203F00C03DBB21846BD4689
:1048A00080BC70470010024080B485B000AF7860D3
:1048B0000023FB60094B5B68FB60FB6823F0F0039F
:1048C000FB60FA687B681343FB60044AFB68536033
:1048D00000BF1437BD4680BC704700BF00100240C7
:1048E00080B485B000AF78600023FB60094B5B6843
:1048F000FB60FB6823F4E063FB60FA687B681343AA
:10490000FB60044AFB68536000BF1437BD4680BC9F
:10491000704700BF0010024080B485B000AF7860DF
:104920000023FB60094B5B68FB60FB6823F460536A
:10493000FB607B68DB00FA681343FB60034AFB689B
:10494000536000BF1437BD4680BC70470010024062
:1049500080B483B000AF03460A46FB711346BB71B7
:10496000BB79002B08D00C490B4B1B78DAB2FB79D2
:104970001343DBB20B7009E00749074B1B78DAB22F
:10498000FB79DB43DBB21340DBB20B7000BF0C37AB
:10499000BD4680BC704700BF0910024080B483B0A0
:1049A00000AF7860034A7B68136000BF0C37BD46D8
:1049B00080BC7047D800424280B485B000AF7860B8
:1049C0000023FB60094B5B68FB60FB6823F44043FA
:1049D000FB60FA687B681343FB60044AFB68536022
:1049E00000BF1437BD4680BC704700BF00100240B6
:1049F00080B483B000AF0346FB710C4B00221A70E9
:104A00000A4B00221A70FB79012B02D0042B04D030
:104A100007E0064B01221A7003E0044B05221A70CE
:104A200000BF00BF0C37BD4680BC7047201002405D
:104A300080B483B000AF0346FB71044AFB79136076
:104A400000BF0C37BD4680BC704700BF80044242A7
:104A500080B483B000AF78600549054B1A6A7B6863
:104A600013430B6200BF0C37BD4680BC704700BFCC
:104A70000010024080B483B000AF0346FB71044ACB
:104A8000FB79136000BF0C37BD4680BC704700BF88
:104A90003C04424280B487B000AF786000237B6161
:104AA00000233B610023FB600023BB604C4B5B6831
:104AB00003F00C037B617B69042B07D0082B09D022
:104AC000002B33D17B68474A1A6033E07B68454A44
:104AD0001A602FE0424B5B6803F470133B61404B5C
:104AE0005B6803F48033FB603B699B0C02333B61E2
:104AF000FB68002B06D13B693B4A02FB03F27B6853
:104B00001A6017E0364B5B6803F40033002B06D0C5
:104B10003B69354A02FB03F27B681A600AE03B6995
:104B2000304A02FB03F27B681A6003E07B682D4A7F
:104B30001A6000BF2A4B5B6803F0F0037B617B695E
:104B40001B097B61294A7B6913441B78DBB2BB607C
:104B50007B681A68BB68DA407B685A60204B5B68E8
:104B600003F4E0637B617B691B0A7B611F4A7B69FD
:104B700013441B78DBB2BB607B685A68BB68DA40C1
:104B80007B689A60164B5B6803F460537B617B69BA
:104B9000DB0A7B61154A7B6913441B78DBB2BB607F
:104BA0007B685A68BB68DA407B68DA600C4B5B68EC
:104BB00003F440437B617B699B0B7B610C4A7B69FF
:104BC00013441B78DBB2BB607B68DA68BB68B2FB5E
:104BD000F3F27B681A6100BF1C37BD4680BC70478A
:104BE0000010024000127A0000093D00F40000208D
:104BF0000401002080B483B000AF78600B46FB70E6
:104C0000FB78002B06D00949084B5A697B6813438F
:104C10004B6106E00549054B5A697B68DB4313404D
:104C20004B6100BF0C37BD4680BC7047001002408E
:104C300080B483B000AF78600B46FB70FB78002B2C
:104C400006D00949084B9A697B6813438B6106E0DB
:104C50000549054B9A697B68DB4313408B6100BFB4
:104C60000C37BD4680BC70470010024080B483B052
:104C700000AF78600B46FB70FB78002B06D009492B
:104C8000084BDA697B681343CB6106E00549054BA5
:104C9000DA697B68DB431340CB6100BF0C37BD464C
:104CA00080BC70470010024080B483B000AF7860D1
:104CB0000B46FB70FB78002B06D00949084BDA68DD
:104CC0007B681343CB6006E00549054BDA687B68D7
:104CD000DB431340CB6000BF0C37BD4680BC704740
:104CE0000010024080B483B000AF78600B46FB70C8
:104CF000FB78002B06D00949084B1A697B681343DF
:104D00000B6106E00549054B1A697B68DB431340DC
:104D10000B6100BF0C37BD4680BC704700100240DD
:104D200080B483B000AF0346FB71044AFB79136083
:104D300000BF0C37BD4680BC704700BF40044242F4
:104D400080B483B000AF0346FB71044AFB79136063
:104D500000BF0C37BD4680BC704700BF4C004242CC
:104D600080B483B000AF0346FB71044AFB79137033
:104D700000BF0C37BD4680BC704700BF0710024023
:104D800080B487B000AF0346FB710023FB600023B3
:104D90007B610023FB74FB795B09DBB2FB60FB6882
:104DA000012B03D1124B1B687B6109E0FB68022BCE
:104DB00003D10F4B1B6A7B6102E00D4B5B6A7B6189
:104DC000FB7903F01F03FB607A69FB6822FA03F3A7
:104DD00003F00103002B02D00123FB7401E0002348
:104DE000FB74FB7C18461C37BD4680BC704700BF77
:104DF0000010024080B400AF044A044B5B6A43F0E9
:104E00008073536200BFBD4680BC704700100240F3
:104E100080B485B000AF0346FB710023FB73084BE1
:104E20009A68FB791340002B02D00123FB7301E049
:104E30000023FB73FB7B18461437BD4680BC7047CC
:104E40000010024080B483B000AF0346FB71044AF7
:104E5000FB79137000BF0C37BD4680BC704700BFA4
:104E60000A10024080F0004002E000BF81F00041E3
:104E700042001FBF5FEA410392EA030F7FEA226C00
:104E80007FEA236C6AD04FEA1262D2EB1363C1BF90
:104E9000D218414048404140B8BF5B42192B88BFFF
:104EA000704710F0004F40F4000020F07F4018BF22
:104EB000404211F0004F41F4000121F07F4118BF42
:104EC000494292EA030F3FD0A2F1010241FA03FCEA
:104ED00010EB0C00C3F1200301FA03F100F00043D2
:104EE00002D5494260EB4000B0F5000F13D3B0F19A
:104EF000807F06D340084FEA310102F10102FE2A09
:104F000051D2B1F1004F40EBC25008BF20F0010078
:104F100040EA03007047490040EB000010F4000F26
:104F2000A2F10102EDD1B0FA80FCACF1080CB2EBB9
:104F30000C0200FA0CF0AABF00EBC2505242184318
:104F4000BCBFD0401843704792F0000F81F40001BD
:104F500006BF80F400000132013BB5E74FEA410390
:104F60007FEA226C18BF7FEA236C21D092EA030FFC
:104F700004D092F0000F08BF0846704790EA010F76
:104F80001CBF0020704712F07F4F04D1400028BFA3
:104F900040F00040704712F100723CBF00F5000085
:104FA000704700F0004343F0FE4040F400007047BB
:104FB0007FEA226216BF08467FEA23630146420267
:104FC00006BF5FEA412390EA010F40F4800070477A
:104FD0004FF0000304E000BF10F0004348BF404220
:104FE0005FEA000C08BF704743F0964301464FF05C
:104FF00000001CE050EA010208BF70474FF00003B8
:105000000AE000BF50EA010208BF704711F00043F8
:1050100002D5404261EB41015FEA010C02BF8446C8
:105020000146002043F0B64308BFA3F18053A3F527
:105030000003BCFA8CF2083AA3EBC25310DB01FA6E
:1050400002FC634400FA02FCC2F12002BCF1004FF2
:1050500020FA02F243EB020008BF20F00100704783
:1050600002F1200201FA02FCC2F1200250EA4C00D7
:1050700021FA02F243EB020008BF20EADC7070471D
:105080004FF0FF0C1CEAD0521EBF1CEAD15392EA2B
:105090000C0F93EA0C0F6FD01A4480EA010C400207
:1050A00018BF5FEA41211ED04FF0006343EA501061
:1050B00043EA5111A0FB01310CF00040B1F5000FA3
:1050C0003EBF490041EAD3715B0040EA010062F152
:1050D0007F02FD2A1DD8B3F1004F40EBC25008BF3C
:1050E00020F00100704790F0000F0CF0004C08BF5A
:1050F00049024CEA502040EA51207F3AC2BFD2F127
:10510000FF0340EAC250704740F400004FF0000334
:10511000013A5DDC12F1190FDCBF00F0004070476E
:10512000C2F10002410021FA02F1C2F1200200FAAC
:1051300002FC5FEA310040F1000053EA4C0308BF73
:1051400020EADC70704792F0000F00F0004C02BFC4
:10515000400010F4000F013AF9D040EA0C0093F03F
:10516000000F01F0004C02BF490011F4000F013B99
:10517000F9D041EA0C018FE70CEAD15392EA0C0F07
:1051800018BF93EA0C0F0AD030F0004C18BF31F072
:10519000004CD8D180EA010000F00040704790F048
:1051A000000F17BF90F0004F084691F0000F91F0EC
:1051B000004F14D092EA0C0F01D142020FD193EAB2
:1051C0000C0F03D14B0218BF084608D180EA01003A
:1051D00000F0004040F0FE4040F40000704740F016
:1051E000FE4040F4400070474FF0FF0C1CEAD052E4
:1051F0001EBF1CEAD15392EA0C0F93EA0C0F69D040
:10520000A2EB030280EA010C49024FEA402037D0AA
:105210004FF0805343EA111143EA10130CF00040A1
:105220008B4238BF5B0042F17D024FF4000C8B4291
:1052300024BF5B1A40EA0C00B3EB510F24BFA3EB71
:10524000510340EA5C00B3EB910F24BFA3EB910341
:1052500040EA9C00B3EBD10F24BFA3EBD10340EA9B
:10526000DC001B0118BF5FEA1C1CE0D1FD2A3FF6E1
:1052700050AF8B4240EBC25008BF20F00100704796
:105280000CF0004C4CEA50207F32C2BFD2F1FF0339
:1052900040EAC250704740F400004FF00003013A6A
:1052A00037E792F0000F00F0004C02BF400010F40E
:1052B000000F013AF9D040EA0C0093F0000F01F022
:1052C000004C02BF490011F4000F013BF9D041EA44
:1052D0000C0195E70CEAD15392EA0C0F08D1420277
:1052E0007FF47DAF93EA0C0F7FF470AF084676E74A
:1052F00093EA0C0F04D14B023FF44CAF08466EE723
:1053000030F0004C18BF31F0004CCAD130F00042F0
:105310007FF45CAF31F000437FF43CAF5FE700BF48
:105320004FEA4002B2F1FE4F0FD34FF09E03B3EBB2
:1053300012620DD94FEA002343F0004310F0004FF2
:1053400023FA02F018BF404270474FF00000704748
:1053500012F1610F01D1420205D110F0004008BFE7
:105360006FF0004070474FF0000070470CB40B46E0
:10537000F0B56FF000454FF402774FF6FF769DB021
:1053800022AC54F8042B0293069302A923460194FD
:10539000ADF8147004950795ADF8166000F00EF99D
:1053A0000022029B1A701DB0BDE8F04002B07047A9
:1053B0000EB40146F0B56FF000454FF402774FF69A
:1053C000FF769CB021AC54F8042B0B4B0291069154
:1053D000186802A923460194ADF814700495079546
:1053E000ADF8166000F0EAF80022029B1A701CB0BB
:1053F000BDE8F04003B07047000000202DE9F04701
:105400008E680C469E421D46174628D880468889DD
:1054100010F4906F32D04E692368096906EB460696
:10542000A3EB010906EBD6766B1C76104B44B34216
:10543000324684BF1E463246430522D511464046B9
:10544000FDF7DEFA824680B34A462169FCF770FD1B
:10545000A38923F4906343F08003A38116E01E46E2
:1054600008682A46394600F0CDF9A2682368961BE1
:105470002B44A66023600020BDE8F087086835460D
:10548000EFE7404600F022FA824650B1A6EB09034E
:105490000AEB09006661C4F810A02060A3602E46E4
:1054A000DFE721694046FDF763FA0C23C8F80030B6
:1054B000A3894FF0FF3043F04003A381BDE8F0879C
:1054C0002DE9F04F936883B09046002B70D0824650
:1054D0000C4617688D68086842E0A38913F4906F42
:1054E0002ED06569216905EB4505A0EB010B05EBA5
:1054F000D5750BF101006D103044A8422A4684BFD7
:1055000005462A465B0538D511465046FDF778FA20
:1055100000283CD05A4621690190FCF709FDA28978
:10552000019B22F4906242F08002A281A5EB0B0263
:1055300003EB0B006561B346354623612060A26032
:105540005A46494600F05EF9D8F80830A26820684B
:10555000551B58449E1BA5602060C8F808603EB3E8
:105560007E683B460837002EFAD0AE42D3F8009052
:10557000AB46B2D23546B346E2E7504600F0A6F954
:1055800003460028D2D121695046FDF7F1F90C23DA
:1055900000224FF0FF30CAF80030A38943F04003E7
:1055A000A381C8F80820C8F8042003B0BDE8F08F34
:1055B0000020C8F8040003B0BDE8F08F2DE9F04FDB
:1055C0000F4689899DB00C0691460393804603D50A
:1055D0003B69002B00F0FC803023002020218DF857
:1055E0002A3099F800300125814C09908DF8291056
:1055F000002B00F09180252BCA4603D119E0252B02
:1056000000F093801AF8013F002BF8D1BAEB090B98
:1056100000F082804A465B4639464046FFF7EEFE80
:10562000013079D0099B9AF800205B440993002A45
:1056300072D000234FF0FF320AF1010A049307935E
:1056400006938DF853301A93059205E0049B001BD6
:1056500005FA00F0184304909AF80010052220463D
:10566000FCF720FCD1460AF1010A0028EED1049B88
:10567000D80644BF20228DF85320190748BF2B229B
:1056800099F8001048BF8DF853202A2971D0A1F154
:105690003002092A0BD8079B19F8011F03EB83037B
:1056A00002EB4303A1F13002092AF5D907932E2911
:1056B00046D0DFF84CA103225046FCF7F3FB48B17B
:1056C0004022049BA0EB0A0002FA00F0034309F118
:1056D0000109049399F800300622194645488DF8CF
:1056E000283009F10109FCF7DDFB00284DD0424BC1
:1056F000FBB103AB00933A46404B04A94046FAF78E
:10570000A9FE0646721C07D0099B3344099399F8F9
:105710000030002B7FF46FAFBB895B064CBF4FF0AE
:10572000FF3009981DB0BDE8F08FBAEB090B80D0AF
:1057300070E7039B073323F0070308330393E3E782
:1057400099F8011009F101002A2928D00023A1F1BC
:105750003002092A05938146ABD819F8011F03EBE3
:10576000830302EB4303A1F13002092AF5D9059323
:105770009FE7039A116804320029039222DB079104
:1057800099F8011009F1010991E703AB00933A463A
:105790001A4B04A94046FBF7BFF90646B2E7039B44
:1057A00009F102001A680433002A0393B8BF4FF0CE
:1057B000FF330592AEBF99F8021099F802100593D5
:1057C000814676E7494243F0020307910493D7E705
:1057D0004021FDF715F93860386110B140237B6135
:1057E000FAE60C234FF0FF30C8F800309AE700BF0C
:1057F000D85A0008E45A000855040008FD53000870
:10580000E05A00088842F0B50DD98B1898420AD2A8
:105810008418002A51D0224613F8014D994202F80B
:10582000014DF9D1F0BD0F2A48D941EA00039B0789
:1058300046D1154600F1100401F1100353F8106C25
:10584000103D44F8106C53F80C6C0F2D44F80C6CA0
:1058500053F8086C04F1100444F8186C53F8046C05
:1058600003F1100344F8146CE8D8A2F1100323F0FC
:105870000F0302F00F0E1033BEF1030F194403445F
:1058800021D90E4674461D1F56F8047B043C032C98
:1058900045F8047FF8D8AEF1040424F0030404347E
:1058A0002144234402F0030262B1013B0A4411F88F
:1058B000014B8A4203F8014FF9D1F0BD0346F3E7EB
:1058C0000346F2E7F0BD7246EEE700BFF8B51446B6
:1058D000F9B1C2B106460D4600F020F8844201D865
:1058E0002846F8BD21463046FDF78AF8074670B1D4
:1058F00022462946FCF71CFB29463D463046FDF76B
:1059000037F82846F8BDFDF733F82546E8E70546A1
:10591000E6E71146BDE8F840FDF772B851F8040C0F
:105920000028A0F10400BCBF0B58C018704700BF8E
:1059300005000000190000007D00000000000000CC
:10594000000000000000F03F0000000000002440C4
:1059500000000000000059400000000000408F409F
:10596000000000000088C34000000000006AF8400A
:105970000000000080842E4100000000D01263412E
:105980000000000084D797410000000065CDCD41A4
:10599000000000205FA00242000000E87648374285
:1059A000000000A2941A6D42000040E59C30A24223
:1059B0000000901EC4BCD64200003426F56B0C4398
:1059C0000080E03779C3414300A0D885573476433F
:1059D00000C84E676DC1AB43003D9160E458E143A0
:1059E000408CB5781DAF154450EFE2D6E41A4B4415
:1059F00092D54D06CFF08044F64AE1C7022DB5445A
:105A0000B49DD9794378EA44BC89D897B2D29C3CFA
:105A100033A7A8D523F649393DA7F444FD0FA53295
:105A20009D978CCF08BA5B25436FAC642806C80AE3
:105A30000080E03779C34143176E05B5B5B893468A
:105A4000F5F93FE9034F384D321D30F94877825A56
:105A50003CBF737FDD4F157556554F4E472044555B
:105A600043204455590000004E6869657420446F16
:105A70002025642E2531646F4300000043000000A0
:105A8000494E4600696E66004E414E006E616E00E2
:105A90003000000030313233343536373839414246
:105AA0004344454600000000303132333435363748
:105AB000383961626364656600000000496E66699A
:105AC0006E697479000000004E614E00504F5349DA
:105AD000580000002E000000232D302B2000000075
